{"abi":[{"type":"constructor","inputs":[],"stateMutability":"nonpayable"},{"type":"function","name":"DOMAIN_SEPARATOR","inputs":[],"outputs":[{"name":"","type":"bytes32","internalType":"bytes32"}],"stateMutability":"view"},{"type":"function","name":"MAX_SIGNIFICANCE","inputs":[],"outputs":[{"name":"","type":"uint256","internalType":"uint256"}],"stateMutability":"view"},{"type":"function","name":"META_TX_TYPEHASH","inputs":[],"outputs":[{"name":"","type":"bytes32","internalType":"bytes32"}],"stateMutability":"view"},{"type":"function","name":"MIN_SIGNIFICANCE","inputs":[],"outputs":[{"name":"","type":"uint256","internalType":"uint256"}],"stateMutability":"view"},{"type":"function","name":"addInteractionType","inputs":[{"name":"interactionType","type":"string","internalType":"string"},{"name":"basePoints","type":"uint256","internalType":"uint256"},{"name":"cooldownPeriod","type":"uint256","internalType":"uint256"}],"outputs":[],"stateMutability":"nonpayable"},{"type":"function","name":"authorizedRelayer","inputs":[],"outputs":[{"name":"","type":"address","internalType":"address"}],"stateMutability":"view"},{"type":"function","name":"executeMetaTx","inputs":[{"name":"user","type":"address","internalType":"address"},{"name":"interaction","type":"string","internalType":"string"},{"name":"nonce","type":"uint256","internalType":"uint256"},{"name":"significance","type":"uint256","internalType":"uint256"},{"name":"signature","type":"bytes","internalType":"bytes"}],"outputs":[],"stateMutability":"nonpayable"},{"type":"function","name":"getInteractionCooldown","inputs":[{"name":"user","type":"address","internalType":"address"},{"name":"interactionType","type":"string","internalType":"string"}],"outputs":[{"name":"","type":"uint256","internalType":"uint256"}],"stateMutability":"view"},{"type":"function","name":"getUserInteractionCount","inputs":[{"name":"user","type":"address","internalType":"address"},{"name":"interactionType","type":"string","internalType":"string"}],"outputs":[{"name":"","type":"uint256","internalType":"uint256"}],"stateMutability":"view"},{"type":"function","name":"getUserStats","inputs":[{"name":"user","type":"address","internalType":"address"}],"outputs":[{"name":"totalInteractions","type":"uint256","internalType":"uint256"},{"name":"totalSignificancePoints","type":"uint256","internalType":"uint256"},{"name":"lastInteractionTimestamp","type":"uint256","internalType":"uint256"}],"stateMutability":"view"},{"type":"function","name":"interactionTypes","inputs":[{"name":"","type":"string","internalType":"string"}],"outputs":[{"name":"basePoints","type":"uint256","internalType":"uint256"},{"name":"cooldownPeriod","type":"uint256","internalType":"uint256"},{"name":"isActive","type":"bool","internalType":"bool"}],"stateMutability":"view"},{"type":"function","name":"lastInteractionTime","inputs":[{"name":"","type":"address","internalType":"address"},{"name":"","type":"string","internalType":"string"}],"outputs":[{"name":"","type":"uint256","internalType":"uint256"}],"stateMutability":"view"},{"type":"function","name":"mintingContract","inputs":[],"outputs":[{"name":"","type":"address","internalType":"contract IQobitMinting"}],"stateMutability":"view"},{"type":"function","name":"nonces","inputs":[{"name":"","type":"address","internalType":"address"}],"outputs":[{"name":"","type":"uint256","internalType":"uint256"}],"stateMutability":"view"},{"type":"function","name":"owner","inputs":[],"outputs":[{"name":"","type":"address","internalType":"address"}],"stateMutability":"view"},{"type":"function","name":"renounceOwnership","inputs":[],"outputs":[],"stateMutability":"nonpayable"},{"type":"function","name":"setAuthorizedRelayer","inputs":[{"name":"_relayer","type":"address","internalType":"address"}],"outputs":[],"stateMutability":"nonpayable"},{"type":"function","name":"setMintingContract","inputs":[{"name":"_mintingContract","type":"address","internalType":"address"}],"outputs":[],"stateMutability":"nonpayable"},{"type":"function","name":"transferOwnership","inputs":[{"name":"newOwner","type":"address","internalType":"address"}],"outputs":[],"stateMutability":"nonpayable"},{"type":"function","name":"userStats","inputs":[{"name":"","type":"address","internalType":"address"}],"outputs":[{"name":"totalInteractions","type":"uint256","internalType":"uint256"},{"name":"totalSignificancePoints","type":"uint256","internalType":"uint256"},{"name":"lastInteractionTime","type":"uint256","internalType":"uint256"}],"stateMutability":"view"},{"type":"event","name":"InteractionPerformed","inputs":[{"name":"user","type":"address","indexed":true,"internalType":"address"},{"name":"interaction","type":"string","indexed":false,"internalType":"string"},{"name":"significance","type":"uint256","indexed":false,"internalType":"uint256"},{"name":"nonce","type":"uint256","indexed":true,"internalType":"uint256"},{"name":"txHash","type":"bytes32","indexed":true,"internalType":"bytes32"}],"anonymous":false},{"type":"event","name":"InteractionTypeAdded","inputs":[{"name":"interactionType","type":"string","indexed":false,"internalType":"string"},{"name":"basePoints","type":"uint256","indexed":false,"internalType":"uint256"}],"anonymous":false},{"type":"event","name":"MintingContractUpdated","inputs":[{"name":"oldContract","type":"address","indexed":true,"internalType":"address"},{"name":"newContract","type":"address","indexed":true,"internalType":"address"}],"anonymous":false},{"type":"event","name":"OwnershipTransferred","inputs":[{"name":"previousOwner","type":"address","indexed":true,"internalType":"address"},{"name":"newOwner","type":"address","indexed":true,"internalType":"address"}],"anonymous":false},{"type":"event","name":"RelayerUpdated","inputs":[{"name":"oldRelayer","type":"address","indexed":true,"internalType":"address"},{"name":"newRelayer","type":"address","indexed":true,"internalType":"address"}],"anonymous":false},{"type":"event","name":"UserScoreUpdated","inputs":[{"name":"user","type":"address","indexed":true,"internalType":"address"},{"name":"newScore","type":"uint256","indexed":false,"internalType":"uint256"},{"name":"totalInteractions","type":"uint256","indexed":false,"internalType":"uint256"}],"anonymous":false},{"type":"error","name":"ECDSAInvalidSignature","inputs":[]},{"type":"error","name":"ECDSAInvalidSignatureLength","inputs":[{"name":"length","type":"uint256","internalType":"uint256"}]},{"type":"error","name":"ECDSAInvalidSignatureS","inputs":[{"name":"s","type":"bytes32","internalType":"bytes32"}]},{"type":"error","name":"OwnableInvalidOwner","inputs":[{"name":"owner","type":"address","internalType":"address"}]},{"type":"error","name":"OwnableUnauthorizedAccount","inputs":[{"name":"account","type":"address","internalType":"address"}]},{"type":"error","name":"ReentrancyGuardReentrantCall","inputs":[]}],"bytecode":{"object":"0x6080604052346105bc5733156105a9575f8054336001600160a01b0319821681178355916001600160a01b03909116907f8be0079c531659141344cd1fd0a4f28419497f9722a3daafe3b4186f6b6457e09080a3600180556040516100656040826105ef565b600c81526b0a2dedccae2e89acae8c2a8f60a31b602090910152604080517f88ad348aca3b9761a2c83cb172b610024756bf2f023aa3f57c57c62eae3c8f88916100af90826105ef565b600181526020810190603160f81b82525190206040519060208201927f8b73c3c69bb8fe3d512ecc4cf759cc79239f7b179b0ffacaa9a75d522b39400f8452604083015260608201524660808201523060a082015260a0815261011360c0826105ef565b5190206006555f5160206117455f395f51905f526040516101356040826105ef565b6009815260606020820191681b1a5ad957dc1bdcdd60ba1b835260405161015b816105c0565b600a81526002602082019161012c83526040810192600184526040516020818751808b835e8101600481520301902091518255516001820155019051151560ff80198354169116179055604051928391604083525180918160408501528484015e5f828201840152600a6020830152601f01601f19168101030190a15f5160206117455f395f51905f526040516101f36040826105ef565b600c8152606060208201916b18dbdb5b595b9d17dc1bdcdd60a21b835260405161021c816105c0565b601981526002602082019161025883526040810192600184526040516020818751808b835e8101600481520301902091518255516001820155019051151560ff80198354169116179055604051928391604083525180918160408501528484015e5f82820184015260196020830152601f01601f19168101030190a15f5160206117455f395f51905f526040516102b46040826105ef565b600a815260606020820191691cda185c9957dc1bdcdd60b21b83526040516102db816105c0565b603281526002602082019161070883526040810192600184526040516020818751808b835e8101600481520301902091518255516001820155019051151560ff80198354169116179055604051928391604083525180918160408501528484015e5f82820184015260326020830152601f01601f19168101030190a15f5160206117455f395f51905f526040516103736040826105ef565b600b8152606060208201916a18dc99585d1957dc1bdcdd60aa1b835260405161039b816105c0565b6064815260026020820191610e1083526040810192600184526040516020818751808b835e8101600481520301902091518255516001820155019051151560ff80198354169116179055604051928391604083525180918160408501528484015e5f82820184015260646020830152601f01601f19168101030190a15f5160206117455f395f51905f526040516104336040826105ef565b600b8152606060208201916a3337b63637bbafbab9b2b960a91b835260405161045b816105c0565b601e81526002602082019161070883526040810192600184526040516020818751808b835e8101600481520301902091518255516001820155019051151560ff80198354169116179055604051928391604083525180918160408501528484015e5f828201840152601e6020830152601f01601f19168101030190a15f5160206117455f395f51905f526040516104f36040826105ef565b600e8152606060208201916d6a6f696e5f636f6d6d756e69747960901b835260405161051e816105c0565b604b815260026020820191611c2083526040810192600184526040516020818751808b835e8101600481520301902091518255516001820155019051151560ff80198354169116179055604051928391604083525180918160408501528484015e5f828201840152604b6020830152601f01601f19168101030190a160405161113290816106138239f35b631e4fbdf760e01b5f525f60045260245ffd5b5f80fd5b606081019081106001600160401b038211176105db57604052565b634e487b7160e01b5f52604160045260245ffd5b601f909101601f19168101906001600160401b038211908210176105db5760405256fe60806040526004361015610011575f80fd5b5f5f3560e01c80631204b37014610c515780631411651814610c2257806316a994bd14610be95780633644e51514610bcc5780633941a85914610bb057806347e53af714610b3d5780634e43603a14610964578063715018a614610ae65780637ecebe0014610aae5780638347e4e0146109c15780638a65d874146109645780638da5cb5b1461093d578063a017b3bf14610903578063a49320da146108e2578063b25ca2a9146108ba578063c56e137514610851578063ccb2e5d914610836578063d2f6f67d1461080e578063f2fde38b146107895763fca01bac146100f6575f80fd5b3461059b5760a036600319011261059b5761010f610cba565b9060243567ffffffffffffffff811161059b57610130903690600401610df1565b9290604435906064359360843567ffffffffffffffff811161059b5761015a903690600401610df1565b6007549091906001600160a01b031633036107445760026001541461073557600260015560018060a01b03861691825f52600260205260405f2054860361070057600a881015806106f4575b156106b8576102576102609161025185948c6101c76006549136908c610d3e565b6020815191012060405160208101917fccf27a148737f415027096d6af7aa7532b954cb01f47d1f40856bf0088c412e1835289604083015260608201528c60808201526080815261021960a082610d00565b51902060405190602082019261190160f01b84526022830152604282015260428152610246606282610d00565b519020923691610d3e565b90610fc1565b90929192610ffb565b6001600160a01b03160361067f57610279368885610d3e565b9360409081519861028a838b610d00565b60208a52601f1983013660208c01375f97885b88518a1080610675575b1561066357602d60f81b6001600160f81b03196102c48c8c610f35565b511614610304576102f8818d6102f26102fe948d8f6102e89060ff60f81b92610f35565b51165f1a92610f35565b53610ee1565b99610ee1565b9861029d565b969a91949850929650979093975b61031b86610d22565b9561032888519788610d00565b80875261033481610d22565b602088019290601f19013684375f5b8281106106385750505060208751809288518091835e8101600481520301902086805161036f81610cd0565b8254815260018301549060ff60026020830195848752015416151592839101528161062e575b5061059f575b506103a96103e19186610f5a565b94875f5260036020526003875f206103c18154610ee1565b8155600181016103d2898254610e1f565b90554260028201550190610dd2565b6103eb8154610ee1565b9055855f526002602052845f206104028154610ee1565b90556008546001600160a01b0316806104f4575b508596977f6b1c32e994893b1cd55314ec36319f13af990a8d79b4db09f57714aa6ef4f26b96927f252193314e19618e11768a25b334cf32fea26d1d83b44738de4811c56ebb8f5e92875160208101916bffffffffffffffffffffffff199060601b168252828460348301376104a6896034838681018b8382015242605482015203016020810184520182610d00565b519020956104be88519384938a85528a850191610eef565b9060208301520390a482845260036020526001818520015483855260036020528185205482519182526020820152a26001805580f35b803b1561059b575f8961052c9289838a5180968195829463dc25806160e01b84526004840152606060248401528a6064840191610eef565b8b604483015203925af11561041657869750977f6b1c32e994893b1cd55314ec36319f13af990a8d79b4db09f57714aa6ef4f26b969261058e5f7f252193314e19618e11768a25b334cf32fea26d1d83b44738de4811c56ebb8f5e949b610d00565b5f98509296509790610416565b5f80fd5b6105c090885f5260056020526105b7885f2088610dd2565b54905190610e1f565b42106105ea576103a96103e191885f526005602052426105e2895f2089610dd2565b55915061039b565b855162461bcd60e51b815260206004820152601760248201527f496e746572616374696f6e206f6e20636f6f6c646f776e0000000000000000006044820152606490fd5b905015155f610395565b6001906001600160f81b031961064e8285610f35565b51165f1a61065c828c610f35565b5301610343565b969a9194985092965097909397610312565b50602081106102a7565b60405162461bcd60e51b8152602060048201526011602482015270496e76616c6964207369676e617475726560781b6044820152606490fd5b60405162461bcd60e51b8152602060048201526014602482015273496e76616c6964207369676e69666963616e636560601b6044820152606490fd5b506103e88811156101a6565b60405162461bcd60e51b815260206004820152600d60248201526c496e76616c6964206e6f6e636560981b6044820152606490fd5b633ee5aeb560e01b5f5260045ffd5b60405162461bcd60e51b815260206004820152601760248201527f4f6e6c7920617574686f72697a65642072656c617965720000000000000000006044820152606490fd5b3461059b57602036600319011261059b576107a2610cba565b6107aa610f0f565b6001600160a01b031680156107fb575f80546001600160a01b03198116831782556001600160a01b0316907f8be0079c531659141344cd1fd0a4f28419497f9722a3daafe3b4186f6b6457e09080a3005b631e4fbdf760e01b5f525f60045260245ffd5b3461059b575f36600319011261059b576008546040516001600160a01b039091168152602090f35b3461059b575f36600319011261059b576020604051600a8152f35b3461059b57602036600319011261059b5761086a610cba565b610872610f0f565b600880546001600160a01b039283166001600160a01b0319821681179092559091167f125ff1248e44c8fcb7ecacec5cbe30f1a41a8b86ed5844a881d0d111de565d5e5f80a3005b3461059b575f36600319011261059b576007546040516001600160a01b039091168152602090f35b3461059b5760206108fb6108f536610d92565b90610e40565b604051908152f35b3461059b575f36600319011261059b5760206040517fccf27a148737f415027096d6af7aa7532b954cb01f47d1f40856bf0088c412e18152f35b3461059b575f36600319011261059b575f546040516001600160a01b039091168152602090f35b3461059b57602036600319011261059b576001600160a01b03610985610cba565b165f52600360205260405f2080546109bd60026001840154930154604051938493846040919493926060820195825260208201520152565b0390f35b3461059b57606036600319011261059b5760043567ffffffffffffffff811161059b57610a137fd751507911c3a603b8e1acca2ec23ec8f5eb1cb7c37d54d9ac800116c6eae455913690600401610d74565b606060243591610a21610f0f565b604051610a2d81610cd0565b83815260208101906044358252600260408201916001835260405193855194602081818901978089835e8101600481520301902091518255516001820155019051151560ff80198354169116179055604051938492604084525180928160408601528585015e5f8383018501526020830152601f01601f19168101030190a1005b3461059b57602036600319011261059b576001600160a01b03610acf610cba565b165f526002602052602060405f2054604051908152f35b3461059b575f36600319011261059b57610afe610f0f565b5f80546001600160a01b0319811682556001600160a01b03167f8be0079c531659141344cd1fd0a4f28419497f9722a3daafe3b4186f6b6457e08280a3005b3461059b57602036600319011261059b5760043567ffffffffffffffff811161059b57602080610b736060933690600401610d74565b604051928184925191829101835e8101600481520301902080549060ff600260018301549201541690604051928352602083015215156040820152f35b3461059b575f36600319011261059b5760206040516103e88152f35b3461059b575f36600319011261059b576020600654604051908152f35b3461059b576020610c19610bfc36610d92565b6001600160a01b039091165f908152600584526040902090610dd2565b54604051908152f35b3461059b576020610c19610c3536610d92565b9060018060a01b03165f5260038352600360405f200190610dd2565b3461059b57602036600319011261059b57610c6a610cba565b610c72610f0f565b600780546001600160a01b039283166001600160a01b0319821681179092559091167f605ca4e43489fb38b91aa63dd9147cd3847957694b080b9285ec898b34269f0c5f80a3005b600435906001600160a01b038216820361059b57565b6060810190811067ffffffffffffffff821117610cec57604052565b634e487b7160e01b5f52604160045260245ffd5b90601f8019910116810190811067ffffffffffffffff821117610cec57604052565b67ffffffffffffffff8111610cec57601f01601f191660200190565b929192610d4a82610d22565b91610d586040519384610d00565b82948184528183011161059b578281602093845f960137010152565b9080601f8301121561059b57816020610d8f93359101610d3e565b90565b90604060031983011261059b576004356001600160a01b038116810361059b57916024359067ffffffffffffffff821161059b57610d8f91600401610d74565b6040518151909260209284929081908501845e82019081520301902090565b9181601f8401121561059b5782359167ffffffffffffffff831161059b576020838186019501011161059b57565b91908201809211610e2c57565b634e487b7160e01b5f52601160045260245ffd5b604051602081845180838701835e810160048152030190209060408051610e6681610cd0565b8354815260018401549060ff6002602083019684885201541615908115938491015291610ed8575b50610ed1576001600160a01b03165f908152600560205260409020610eb7926105b79190610dd2565b80421015610ecc57428103908111610e2c5790565b505f90565b5050505f90565b9050155f610e8e565b5f198114610e2c5760010190565b908060209392818452848401375f828201840152601f01601f1916010190565b5f546001600160a01b03163303610f2257565b63118cdaa760e01b5f523360045260245ffd5b908151811015610f46570160200190565b634e487b7160e01b5f52603260045260245ffd5b60208091604051928184925191829101835e81016004815203019020604051610f8281610cd0565b60ff600283549384845260018101546020850152015416159060408215910152610fbd57818102918183041490151715610e2c576064900490565b5090565b8151919060418303610ff157610fea9250602082015190606060408401519301515f1a9061106f565b9192909190565b50505f9160029190565b600481101561105b578061100d575050565b600181036110245763f645eedf60e01b5f5260045ffd5b6002810361103f575063fce698f760e01b5f5260045260245ffd5b6003146110495750565b6335e2f38360e21b5f5260045260245ffd5b634e487b7160e01b5f52602160045260245ffd5b91907f7fffffffffffffffffffffffffffffff5d576e7357a4501ddfe92f46681b20a084116110f1579160209360809260ff5f9560405194855216868401526040830152606082015282805260015afa156110e6575f516001600160a01b038116156110dc57905f905f90565b505f906001905f90565b6040513d5f823e3d90fd5b5050505f916003919056fea26469706673582212208ea4856146fc9f162beb22d596e5b3b511f09e54e87b1f788ea109e98b3e2b6064736f6c634300081e0033d751507911c3a603b8e1acca2ec23ec8f5eb1cb7c37d54d9ac800116c6eae455","linkReferences":{}},"methodIdentifiers":{"DOMAIN_SEPARATOR()":"3644e515","MAX_SIGNIFICANCE()":"3941a859","META_TX_TYPEHASH()":"a017b3bf","MIN_SIGNIFICANCE()":"ccb2e5d9","addInteractionType(string,uint256,uint256)":"8347e4e0","authorizedRelayer()":"b25ca2a9","executeMetaTx(address,string,uint256,uint256,bytes)":"fca01bac","getInteractionCooldown(address,string)":"a49320da","getUserInteractionCount(address,string)":"14116518","getUserStats(address)":"4e43603a","interactionTypes(string)":"47e53af7","lastInteractionTime(address,string)":"16a994bd","mintingContract()":"d2f6f67d","nonces(address)":"7ecebe00","owner()":"8da5cb5b","renounceOwnership()":"715018a6","setAuthorizedRelayer(address)":"1204b370","setMintingContract(address)":"c56e1375","transferOwnership(address)":"f2fde38b","userStats(address)":"8a65d874"},"id":27}